:04000000FEEF7FF0A0
:1010000000005EEC08F02EEC08F03901DA39070B2D
:10101000030AD8B40EEF08F010EF08F011EF08F053
:10102000BA920400BA90080E246E9D0E236E060E2E
:10103000E82EFED7232EFCD7242EFAD7BA80080E2E
:10104000246E9D0E236E060EE82EFED7232EFCD7AF
:10105000242EFAD711EF08F0FEEF7FF0700E390161
:10106000D96FDBA936EF08F038EF08F031EF08F060
:10107000700EDA19D8B43FEF08F041EF08F052EFE4
:1010800008F0000E226E000E216E214A222A600E08
:10109000215CEA0E2258D8A050EF08F052EF08F079
:1010A00045EF08F0120000EE01F0200EEE6AE806AF
:1010B000FDE1000EF86E000101EF08F0C290BA8069
:0A10C000C292BA82C388C38A1200EC
:04FFFC0053EF08F0C7
:020000040030CA
:02000000EAFF15
:00000001FF
