:040000000DEF00F010
:0400080051EF11F0B3
:06001800FF0030EF11F0C3
:1010000000DC05C409F401004450800B4D6E4450CF
:1010100044244F6E43AE0FEF08F011EF08F012EFCB
:1010200008F04F804F50D8B418EF08F01AEF08F0CE
:101030002EEF08F04F28D8A420EF08F022EF08F098
:101040002AEF08F0000E416E000E426E000E436E55
:10105000000E446E438E446A36EF08F0000E416E77
:10106000000E426E000E436E000E446E4850800B20
:101070004E6E4D504E18D8B440EF08F042EF08F0D5
:1010800043EF08F04D8C485048244E6E47AE4BEF6E
:1010900008F04DEF08F04EEF08F04E804E50D8B4F7
:1010A00054EF08F056EF08F06AEF08F04E28D8A485
:1010B0005CEF08F05EEF08F066EF08F0000E456E9A
:1010C000000E466E000E476E000E486E478E486A50
:1010D00072EF08F0000E456E000E466E000E476E71
:1010E000000E486E4F504E5CD8B079EF08F07BEFA1
:1010F00008F0A2EF08F04DAC80EF08F082EF08F0A6
:1011000084EF08F0800E4D1A4FC050F04EC04FF0E3
:1011100050C04EF041C050F045C041F050C045F0C5
:1011200042C050F046C042F050C046F043C050F0BC
:1011300047C043F050C047F044C050F048C044F0AE
:1011400050C048F0506A4F504EC049F04A6A495E5C
:10115000000E4A5A4ABEB6EF08F04A5009E11A0E8C
:10116000495CD8A0B6EF08F0B8EF08F0EFEF08F050
:101170004150421043104410D8A4C1EF08F0C4EF0E
:1011800008F0010EC5EF08F0000E506E000E416E23
:10119000000E426E000E436E000E446E4EC04FF0C5
:1011A000F8EF08F050A0D7EF08F0D9EF08F0DFEF24
:1011B00008F0D89050300109506EE1EF08F0D89057
:1011C000503241A0E6EF08F0E8EF08F0E9EF08F050
:1011D000508E443444324332423241324F2A4E50D0
:1011E0004F5CD8A0F6EF08F0F8EF08F0D2EF08F067
:1011F0004DBCFDEF08F0FFEF08F03FEF09F04F5056
:10120000D8A405EF09F007EF09F011EF09F0000E7F
:10121000416E000E426E000E436E000E446E5EEF95
:101220000AF045504126465042224750432248503A
:10123000442244A01EEF09F020EF09F0CCEF09F0A2
:1012400050A025EF09F027EF09F02DEF09F0D89015
:1012500050300109506E2FEF09F0D890503241A064
:1012600034EF09F036EF09F037EF09F0508E4434CF
:1012700044324332423241324F2ACCEF09F04550DA
:10128000415C46504258475043584450800A496E8A
:101290004850800A4958D8B050EF09F052EF09F091
:1012A0007DEF09F04150455C496E425046584A6E08
:1012B000435047584B6E445048584C6EFF0E4924DB
:1012C000416EFF0E4A20426EFF0E4B20436EFF0E12
:1012D0004C20446E800E4D1A506C5050D8A473EFC1
:1012E00009F075EF09F085EF09F0010E4126000EB7
:1012F00042224322442285EF09F04550415E465088
:10130000425A4750435A4850445A415042104310A1
:101310004410D8A48EEF09F090EF09F0C5EF09F062
:101320005050D8A496EF09F098EF09F0C5EF09F0F6
:10133000000E416E000E426E000E436E000E446EB3
:101340005EEF0AF0D890413642364336443650AE0E
:10135000ACEF09F0AEEF09F0AFEF09F0418050A01B
:10136000B4EF09F0B6EF09F0BAEF09F0D8805036C3
:10137000BCEF09F0D89050364F50D8B4C2EF09F006
:10138000C4EF09F0C5EF09F04F0643AECAEF09F00C
:10139000CCEF09F0A2EF09F04E6A50AED2EF09F09F
:1013A000D4EF09F0ECEF09F050C049F07F0E491678
:1013B000D8B4DDEF09F0DFEF09F0E3EF09F0010E3B
:1013C0004E6EECEF09F041A0E8EF09F0EAEF09F00A
:1013D000ECEF09F0DFEF09F04E50D8B4F2EF09F06E
:1013E000F4EF09F01FEF0AF0010E4126000E422231
:1013F0004322442244A0FFEF09F001EF0AF01FEF5F
:101400000AF041C049F042C04AF043C04BF044C02A
:101410004CF04C344C324B324A32493249C041F0E4
:101420004AC042F04BC043F04CC044F04F28D8B4FF
:101430001CEF0AF01EEF0AF01FEF0AF04F2A4F28A8
:10144000D8B425EF0AF027EF0AF02FEF0AF04F503B
:10145000D8A42DEF0AF02FEF0AF040EF0AF0000EAB
:10146000416E000E426E000E436E000E446E4F50F1
:10147000D8A43DEF0AF03FEF0AF040EF0AF04D6AC2
:101480004FA045EF0AF047EF0AF04AEF0AF0438E0B
:101490004BEF0AF0439ED8904F30446E4DAE53EF61
:1014A0000AF055EF0AF056EF0AF0448E41C041F0C1
:1014B00042C042F043C043F044C044F01200125016
:1014C000800B1B6E12501224216E11AE6AEF0AF0CF
:1014D0006CEF0AF06DEF0AF021802150D8B473EF61
:1014E0000AF075EF0AF088EF0AF02128D8A47BEF04
:1014F0000AF07DEF0AF085EF0AF0000E0F6E000E85
:10150000106E000E116E000E126E118E90EF0AF02A
:10151000000E0F6E000E106E000E116E000E126E99
:101520001650800B1B1A16501624206E15AE9BEF1A
:101530000AF09DEF0AF09EEF0AF020802050D8B408
:10154000A4EF0AF0A6EF0AF0B9EF0AF02028D8A419
:10155000ACEF0AF0AEEF0AF0B6EF0AF0000E136E31
:10156000000E146E000E156E000E166E158EC1EF75
:101570000AF0000E136E000E146E000E156E000EB3
:10158000166E2050D8B4C7EF0AF0C9EF0AF0D1EFB9
:101590000AF02150D8A4CFEF0AF0D1EF0AF0DBEF28
:1015A0000AF0000E0F6E000E106E000E116E000E8F
:1015B000126E83EF0CF015500F026F00CCFF26F077
:1015C0006F00D0FF27F026501C6E1D6A1E6A1F6A2E
:1015D0002750226E236A246A256A145010026F0075
:1015E000CCFF26F06F00D0FF27F026501C26000EFF
:1015F0001D221E221F2227502226000E23222422D3
:101600002522135011026F00CCFF26F06F00D0FF8F
:1016100027F026501C26000E1D221E221F222750B6
:101620002226000E2322242225221EC01FF01DC0C8
:101630001EF01CC01DF01C6A135010026F00CCFF7E
:1016400026F06F00D0FF27F026501C2627501D22C1
:10165000000E1E22000E1F2214500F026F00CCFF3E
:1016600026F06F00D0FF27F026501C2627501D22A1
:10167000000E1E22000E1F221EC01FF01DC01EF0F5
:101680001CC01DF01C6A13500F026F00CCFF26F027
:101690006F00D0FF27F026501C2627501D22000E79
:1016A0001E22000E1F22155010026F00CCFF26F0E4
:1016B0006F00D0FF27F02650222627502322000E4D
:1016C0002422000E2522145011026F00CCFF26F0B8
:1016D0006F00D0FF27F02650222627502322000E2D
:1016E0002422000E2522155011026F00CCFF26F097
:1016F0006F00D0FF27F02650176E2750186E196A1A
:101700001A6A19C01AF018C019F017C018F0176A31
:101710001750222618502322195024221A5025220D
:101720001CC017F01DC018F01EC019F01FC01AF021
:10173000190EA0EF0BF0D8901A3219321832173266
:10174000E82E9BEF0BF01750222618502322195039
:1017500024221A5025221EC01FF01DC01EF01CC0DE
:101760001DF01C6A205021C017F0186A1726000EC1
:101770001822820E1724266EFF0E1820276ED6EF31
:101780000BF0D89022362336243625361FAECBEF09
:101790000BF0CDEF0BF0CEEF0BF02280D8901C3683
:1017A0001D361E361F362606D8A0270624AEDBEFD0
:1017B0000BF0DDEF0BF0C1EF0BF0206A1FAEE3EF93
:1017C0000BF0E5EF0BF009EF0CF0FF0E1C14176E99
:1017D000FF0E1D14186EFF0E1E14196E7F0E1F14BF
:1017E0001A6E1750181019101A10D8B4FAEF0BF01F
:1017F000FCEF0BF000EF0CF0010E206E09EF0CF087
:1018000022A005EF0CF007EF0CF009EF0CF0FCEF55
:101810000BF02050D8B40FEF0CF011EF0CF035EFB7
:101820000CF0010E2226000E23222422252225A0C0
:101830001CEF0CF01EEF0CF035EF0CF022C017F08F
:1018400023C018F024C019F025C01AF01A341A3237
:1018500019321832173217C022F018C023F019C0FD
:1018600024F01AC025F0264A272A27BE40EF0CF0A4
:10187000275008E12628D8A040EF0CF042EF0CF0EA
:101880004CEF0CF0000E226E000E236E800E246EC4
:101890007F0E256E79EF0CF027BE59EF0CF0275024
:1018A00006E12604D8B057EF0CF059EF0CF064EFC6
:1018B0000CF0000E226E000E236E000E246E000E41
:1018C000256E1B6A79EF0CF026C021F0FF0E221660
:1018D000FF0E23167F0E2416000E251621A073EF8F
:1018E0000CF075EF0CF076EF0CF0248ED8902130D0
:1018F000256E1B50251222C00FF023C010F024C00B
:1019000011F025C012F012002B50800B386E2B50B6
:101910002B243F6E2AAE8FEF0CF091EF0CF092EF7C
:101920000CF03F803F50D8B498EF0CF09AEF0CF0D9
:10193000AEEF0CF03F28D8A4A0EF0CF0A2EF0CF013
:10194000AAEF0CF0000E286E000E296E000E2A6E13
:10195000000E2B6E2A8E2B6AB6EF0CF0000E286E4E
:10196000000E296E000E2A6E000E2B6E2F50800B7B
:10197000381A2F502F24406E2EAEC1EF0CF0C3EF5B
:101980000CF0C4EF0CF040804050D8B4CAEF0CF01B
:10199000CCEF0CF0E0EF0CF04028D8A4D2EF0CF024
:1019A000D4EF0CF0DCEF0CF0000E2C6E000E2D6E60
:1019B000000E2E6E000E2F6E2E8E2F6AE8EF0CF0AA
:1019C000000E2C6E000E2D6E000E2E6E000E2F6E71
:1019D0002C502D102E102F10D8A4F1EF0CF0F3EF97
:1019E0000CF00BEF0DF0000E286E000E296E000EAD
:1019F0002A6E000E2B6E800E2A127F0E2B1238508C
:101A00002B1228C028F029C029F02AC02AF02BC0A8
:101A10002BF04BEF0EF03F50D8A411EF0DF013EF69
:101A20000DF01DEF0DF0000E286E000E296E000E59
:101A30002A6E000E2B6E4BEF0EF040503FC030F080
:101A4000316A305E000E315A7F0E3024396E000E3E
:101A500031203A6E28C034F029C035F02AC036F063
:101A60002BC037F0000E286E000E296E000E2A6E75
:101A7000000E2B6E000E3B6E000E3C6E000E3D6E97
:101A8000000E3E6E406A7DEF0DF04050D8B44BEF33
:101A90000DF04DEF0DF064EF0DF0D8903436353683
:101AA00036363736D890283629362A362B363EAE8B
:101AB0005CEF0DF05EEF0DF05FEF0DF02880D89039
:101AC0003B363C363D363E362C50345C2D50355836
:101AD0002E5036582F503758D8A071EF0DF073EFB5
:101AE0000DF07CEF0DF03E8C2C50345E2D50355AAD
:101AF0002E50365A2F50375A402A190E406483EF21
:101B00000DF085EF0DF045EF0DF034503510361027
:101B10003710D8B48EEF0DF090EF0DF0A8EF0DF068
:101B20003B80A8EF0DF0D890283629362A362B3680
:101B30003EAE9DEF0DF09FEF0DF0A0EF0DF0288071
:101B4000D8903B363C363D363E363906D8A03A066C
:101B50002AAEADEF0DF0AFEF0DF093EF0DF0406A50
:101B60003EAEB5EF0DF0B7EF0DF0DBEF0DF0FF0E71
:101B70003B14306EFF0E3C14316EFF0E3D14326E7E
:101B80007F0E3E14336E3050311032103310D8B403
:101B9000CCEF0DF0CEEF0DF0D2EF0DF0010E406E58
:101BA000DBEF0DF028A0D7EF0DF0D9EF0DF0DBEF54
:101BB0000DF0CEEF0DF04050D8B4E1EF0DF0E3EFB3
:101BC0000DF007EF0EF0010E2826000E29222A2222
:101BD0002B222BA0EEEF0DF0F0EF0DF007EF0EF043
:101BE00028C030F029C031F02AC032F02BC033F0C9
:101BF0003334333232323132303230C028F031C0F7
:101C000029F032C02AF033C02BF0394A3A2A3ABEC2
:101C100012EF0EF03A5008E13928D8A012EF0EF07A
:101C200014EF0EF01FEF0EF0000E3A6E3968000E42
:101C3000286E000E296E000E2A6E000E2B6E3ABE24
:101C40002CEF0EF03A5006E13904D8B02AEF0EF02E
:101C50002CEF0EF039EF0EF0000E3A6E000E396EDA
:101C6000000E286E000E296E000E2A6E000E2B6EDE
:101C7000386A39C03FF03FA040EF0EF042EF0EF05F
:101C800045EF0EF02A8E46EF0EF02A9ED8903F3098
:101C90002B6EFFEF0CF01200096E0950D8B453EF11
:101CA0000EF055EF0EF077EF0EF004BE5CEF0EF085
:101CB0005AEF0EF077EF0EF001C005F002C006F00B
:101CC00003C007F004C008F0051E061E071E081E0C
:101CD000052A000E06220722082205C00BF006C0C6
:101CE0000CF007C00DF008C00EF07FEF0EF001C041
:101CF0000BF002C00CF003C00DF004C00EF0015058
:101D0000021003100410D8A488EF0EF08AEF0EF032
:101D100094EF0EF0000E016E000E026E000E036EC8
:101D2000000E046E25EF0FF0960E0A6E9EEF0EF079
:101D30000A2AD8900E320D320C320B32000E0B14E0
:101D4000056E000E0C14066E000E0D14076EFE0ECE
:101D50000E14086E0550061007100810D8A4B3EF33
:101D60000EF0B5EF0EF098EF0EF0C3EF0EF00A2A6A
:101D7000010E0B26000E0C220D220E22D8900E32E0
:101D80000D320C320B32000E0B14056E000E0C14CB
:101D9000066E000E0D14076EFF0E0E14086E055031
:101DA000061007100810D8A4D8EF0EF0DAEF0EF0E6
:101DB000B7EF0EF0E2EF0EF00A06D8900B360C36B5
:101DC0000D360E360DBEE7EF0EF0E9EF0EF0F1EF37
:101DD0000EF0020E0A60EFEF0EF0F1EF0EF0DCEF06
:101DE0000EF00AB0F6EF0EF0F8EF0EF0F9EF0EF08D
:101DF0000D9ED8900A320AC005F0066A076A086A82
:101E000005C008F0076A066A056A05500B120650FD
:101E10000C1207500D1208500E120950D8B413EFCF
:101E20000FF015EF0FF01DEF0FF004BE1CEF0FF0D9
:101E30001AEF0FF01DEF0FF00E8E0BC001F00CC06B
:101E400002F00DC003F00EC004F012000001856F17
:101E5000000E456E000E466EFA0E476E430E486E3B
:101E6000000E2C6E000E2D6E480E2E6E430E2F6E41
:101E7000000E136E000E146EFA0E156E440E166EE2
:101E800000018551016E026A036A046A000E4CEC7F
:101E90000EF001C00FF002C010F003C011F004C03A
:101EA00012F05FEC0AF00FC028F010C029F011C04A
:101EB0002AF012C02BF084EC0CF028C041F029C0AD
:101EC00042F02AC043F02BC044F004EC08F041C0BB
:101ED00051F042C052F043C053F044C054F0F4EC0F
:101EE0000FF051C07DF052C07EF053C07FF054C05F
:101EF00080F0AC38070B5B6E010E5C6E5B2A83EFE3
:101F00000FF0D8905C365B2E81EF0FF05C50000133
:101F1000866F000E136E1B0E146E370E156E4B0E71
:101F2000166E000E2C6E240E2D6E740E2E6E490E43
:101F30002F6E7DC001F07EC002F07FC003F080C034
:101F400004F0000E4CEC0EF001C028F002C029F0A5
:101F500003C02AF004C02BF084EC0CF028C00FF072
:101F600029C010F02AC011F02BC012F05FEC0AF06B
:101F70000FC081F010C082F011C083F012C084F055
:101F800000018651016E026A036A046A010E4CEC7C
:101F90000EF001C02CF002C02DF003C02EF004C0E2
:101FA0002FF081C028F082C029F083C02AF084C0BD
:101FB0002BF084EC0CF028C051F029C052F02AC05C
:101FC00053F02BC054F0F4EC0FF051C087F052C026
:101FD00088F053C089F054C08AF0600023F275FF86
:101FE00060001FF274FF1200533454345A6E5A507A
:101FF000D8A4FDEF0FF0FFEF0FF009EF10F0000E87
:10200000516E000E526E000E536E000E546E76EF3F
:1020100010F051C055F052C056F053C057F054C0A4
:1020200058F0200E19EF10F0D8905832573256322F
:102030005532E82E14EF10F05550596E538EFF0EA6
:102040005116FF0E5216FF0E5316000E5416960E22
:102050005A5E5ABE30EF10F02EEF10F046EF10F03F
:102060005A50800A970FD8B038EF10F03AEF10F0BE
:102070003CEF10F0FFEF0FF0D89054325332523251
:1020800051325A3E3CEF10F05EEF10F01F0E5A64D2
:102090004CEF10F04EEF10F056EF10F0FFEF0FF096
:1020A000D89051365236533654365A065A50D8A420
:1020B0005CEF10F05EEF10F050EF10F05950D8B414
:1020C00064EF10F066EF10F06EEF10F0541E531E28
:1020D000521E516C000E52225322542251C051F014
:1020E00052C052F053C053F054C054F012005EEC92
:1020F00011F0C2EC10F0BA9242EC11F0E7EC10F0E3
:10210000D28E000E00018F6F000E906F000E916F47
:10211000000E926F04001DEC11F000018F51015C64
:102120008B6F905102588C6F915103588D6F925163
:1021300004588E6F8E518D110BE1F50E8B5D010EE3
:102140008C59D8A0A6EF10F0A8EF10F0BBEF10F05C
:102150001DEC11F001C08FF002C090F003C091F0AF
:1021600004C092F0BAA0B7EF10F0BAEF10F0BA8046
:10217000BBEF10F0BA90640E26EC0FF08AEF10F06F
:102180000DEF00F0700E3901D96FDBA9CAEF10F026
:10219000CCEF10F0C5EF10F0700EDA19D8B4D3EF11
:1021A00010F0D5EF10F0E6EF10F0000E026E000E0A
:1021B000016E014A022A600E015CEA0E0258D8A0A4
:1021C000E4EF10F0E6EF10F0D9EF10F012000B0E74
:1021D0003A010B6FC386E90EAB6E768E7698765019
:1021E000F00B0C09766E020E756E320E746E3901AC
:1021F000A495010EAE6EAC508F0B5009AC6EAC8E38
:10220000A4A505EF11F007EF11F000EF11F0C39650
:102210001200400E5F267D0E5F6411EF11F013EF88
:1022200011F01CEF11F07D0E5F5E010E00016027C2
:10223000000E6123622363231200D29E60C005F06A
:1022400061C006F062C007F063C008F0D28E05C01E
:1022500001F006C002F007C003F008C004F012004D
:1022600000EE60F01D0EEE6AE806FDE15F6A5E6A50
:102270005D6A080ED56E000ED66E000ED76E000198
:1022800077EF10F03901938FB89EB898F00EB8161A
:10229000F00EB916B9501F0BA009B96EB998B88ED7
:1022A00012003901A3AF57EF11F059EF11F05DEFB4
:1022B00011F009EC11F03901A39F1100C2903A010D
:1022C0004091BA80C2924093BA82C388C38A1200F6
:020000040030CA
:0A000000EAFFF7FFFFFFFFFFFFFF1D
:00000001FF
