:0400000054EF00F0C9
:1000080029002900290029002900290029002900A0
:100018002900290029002900290029002900290090
:100028002900290029002900290029002900290080
:10003800290029002900290029002900290058043D
:100048002900290029002900290029002900290060
:100058002900290029002900290029002900290050
:100068002900290029002900290029002900290040
:100078002900290029002900290029002900290030
:100088002900290029002900290029002900290020
:100098002900290029002900290029002900FF003A
:0400A8008FEF08F0DE
:101000000000BDEC08F044EC08F0A0EC08F0D28E33
:10101000000E2D6E000E2E6E000E2F6E000E306E26
:10102000040069EC08F02D50215C296E2E502258E6
:101030002A6E2F5023582B6E305024582C6E2C5073
:101040002B100BE1F50E295C010E2A58D8A02BEFCE
:1010500008F02DEF08F010EF08F069EC08F021C05F
:101060002DF022C02EF023C02FF024C030F0BAA003
:101070003CEF08F03FEF08F0BA8040EF08F0BA907C
:1010800010EF08F054EF00F0700E3901D96FDBA9B2
:101090004CEF08F04EEF08F047EF08F0700EDA1949
:1010A000D8B455EF08F057EF08F068EF08F0000EDD
:1010B000226E000E216E214A222A600E215CEA0E69
:1010C0002258D8A066EF08F068EF08F05BEF08F050
:1010D0001200D29E01C025F002C026F003C027F006
:1010E00004C028F0D28E25C021F026C022F027C0EF
:1010F00023F028C024F01200400E0B267D0E0B6456
:1011000084EF08F086EF08F08EEF08F07D0E0B5E9E
:10111000010E0126000E022203220422120000EE1C
:1011200001F0200EEE6AE806FDE1080ED56E000E15
:10113000D66E000ED76E000EF86E000101EF08F0BB
:101140003901938FB89EB898F00EB816F00EB91604
:0E115000B9501F0BA009B96EB998B88E1200E5
:101160003901A3AFB6EF08F0B8EF08F0BCEF08F014
:101170007CEC08F03901A39F1100C2903A01409124
:0E118000BA80C2924093BA82C388C38A12001A
:020000040030CA
:02000000EAFF15
:00000001FF
